:020000040800F2
:100000002807002059020008170400085B030008B5
:1000100015040008CD020008630500080000000078
:10002000000000000000000000000000A101000826
:10003000CF02000800000000F5010008ED040008F0
:1000400073020008730200087302000873020008BC
:1000500073020008730200087302000873020008AC
:10006000730200087302000873020008730200089C
:10007000730200087302000873020008730200088C
:10008000730200087302000873020008730200087C
:10009000730200087302000873020008730200086C
:1000A000730200087302000873020008730200085C
:1000B000730200087302000873020008730200084C
:1000C000730200087302000873020008730200083C
:1000D000730200087302000873020008730200082C
:1000E000730200087302000873020008730200081C
:1000F000730200087302000873020008730200080C
:1001000073020008730200087302000873020008FB
:1001100073020008730200087302000873020008EB
:1001200073020008730200087302000873020008DB
:1001300073020008730200087302000873020008CB
:1001400073020008730200087302000873020008BB
:1001500073020008730200087302000873020008AB
:10016000730200087302000873020008730200089B
:10017000730200087302000873020008730200088B
:100180007302000873020008DFF810D000F08CF84A
:100190000048004781070008AFF3008028070020CF
:1001A0002A4B19680868B0E8F04F80F30988BFF35C
:1001B0006F8F4FF0000080F311887047000000003F
:1001C00006480068006880F3088862B661B6BFF32D
:1001D0004F8FBFF36F8F00DF00BF00BF08ED00E05F
:1001E000DFF80C00016841F470010160704700BF46
:1001F00088ED00E0EFF30980BFF36F8F134B1A68AF
:100200001EF0100F08BF20ED108A20E9F04F10609B
:1002100008B44FF0500080F31188BFF34F8FBFF345
:100220006F8F00F0D1FA4FF0000080F3118808BC06
:1002300019680868B0E8F04F1EF0100F08BFB0EC66
:10024000108A80F30988BFF36F8F70470000002089
:10025000EFF30580704700000648804706480047D6
:10026000FEE7FEE7FEE7FEE7FEE7FEE7FEE7FEE766
:10027000FEE7FEE7F10400088901000830B50B46EF
:10028000014600202022012409E021FA02F59D42C6
:1002900005D303FA02F5491B04FA02F52844151E9A
:1002A000A2F10102F1DC30BD064C074D06E0E0682A
:1002B00040F0010394E8070098471034AC42F6D3AD
:1002C000FFF766FF5008000870080008FEE7704757
:1002D0002DE9F041002201274FF0030C07FA02F547
:1002E0000B682B40AB422CD1066853000CFA03F488
:1002F000A64306600E79D0F800809E4046EA0806C4
:1003000006600E79012E01D0022E12D18668A64316
:1003100086604E79D0F808809E4046EA08068660DE
:100320004668AE43466045688E799640B6B235431E
:100330004560C568A543C560CC799C40C3681C4333
:10034000C460521C102AC9D3BDE8F08102460020C7
:1003500012690A4200D001207047FEE71CB5012156
:10036000052000F059F80120009000208DF80400CD
:100370008DF8070069460548FFF7AAFF4FF40050C3
:10038000009069460248FFF7A3FF1CBD0000024031
:100390000008024070B504460D4629462046FFF786
:1003A000D5FF012801D0002070BD29462046FFF767
:1003B000CDFF0128F9D0012070BD00002DE9FC41DE
:1003C0000121202000F028F84024009401208DF81D
:1003D000040000218DF806108DF807008DF8051037
:1003E0000B4F69463846FFF773FF80260096694633
:1003F0003846FFF76DFFA500009569463846FFF7C0
:1004000067FF03481830048006800580BDE8FC8142
:1004100000140240FEE77047054A002903D0116826
:1004200001431160704711688143116070470000FB
:10043000303802400CB5002201920092274908682A
:1004400040F4803008604FF4A043086800F40030A6
:1004500000900198401C0190009810B901989842B2
:10046000F3D10868800302D50120009000E00092DB
:100470000098012831D119484030026842F080527A
:1004800002601748026842F4404202601348083094
:1004900002680260026842F400420260026842F4AC
:1004A000A0520260021F0F4B13600A6842F0807274
:1004B0000A600A689201FCD50B4A40F2057111608E
:1004C000016821F003010160016841F0020101604F
:1004D0000168C1F381010229FAD10CBD0038024044
:1004E0000070004019544007003C02407047000073
:1004F00010B51248016841F47001016010480168AC
:1005000041F0010101600E4A0021083211600268C9
:100510000C4B1A400260031D0B4A1A60026822F459
:100520008022026006480C300160FFF783FF034918
:100530004FF000608039086010BD000088ED00E0D9
:1005400000380240FFFFF6FE103000240246002073
:1005500012880A4200D001207047C1F3080181804F
:100560007047FEE70FB4054B10B503A9044A029883
:1005700000F018F810BC5DF814FB00005D070008DF
:100580003C00002002E008C8121F08C1002AFAD16E
:1005900070477047002001E001C1121F002AFBD103
:1005A000704700002DE9FF4F8BB09A460F46054675
:1005B000002606E025280BD052460D9990476D1C69
:1005C000761C28780028F5D10FB03046BDE8F08FB2
:1005D0000024A0460122604900E0044315F8013FD1
:1005E000203B02FA03F00842F7D128782E2817D1D1
:1005F00015F8010F44F004042A280ED06FF02F02E2
:100600002878A0F1300109290AD808EB880102EB0B
:10061000410100EB01086D1CF2E757F8048B6D1CDB
:10062000287869283ED006DC0028CDD063280BD07E
:10063000642804D136E0732810D075284BD0524678
:100640000D999047761C85E017F8040B8DF8000093
:1006500000208DF80100E946012003E057F8049BD3
:100660004FF0FF3061074FF0000401D40AE0641C32
:1006700044450DDA8442FADB19F804100029F6D15A
:1006800006E0641C8442FCDB19F804100029F8D150
:10069000264404E019F8010B52460D999047641E58
:1006A000F8D257E001CF4FF00A0B002802DA40429F
:1006B0002D2102E0210504D52B218DF824100121E4
:1006C00003E0E10705D02021F7E70DF120090891AB
:1006D0000CE00021F9E701CF4FF00A0BF9E759468A
:1006E000FFF7CCFD01F1300209F8012D0028F6D109
:1006F000ADEB090000F1200B600701D44FF00108B9
:10070000D84502DDA8EB0B0000E000208046002465
:1007100006E009A85246005D0D999047641C761CBE
:1007200008988442F5DB04E0302052460D9990474A
:10073000761CB8F10001A8F10108F5DC05E019F814
:10074000010B52460D999047761CBBF10001ABF1AD
:10075000010BF4DC6D1C34E70928010070B5044678
:10076000064DE1B22846FFF7F8FE80212846FFF744
:10077000EDFE0028F9D0204670BD000000100140B9
:10078000FFF71CFEFFF7EAFD0C4D0D4F0D4C4FF42B
:10079000005601212846FFF7FDFD012803D12068FE
:1007A00080F04000206031463846FFF7F3FD012815
:1007B000EFD1206880F080002060EAE7000002406E
:1007C000000802401414024070B5144D286B002834
:1007D00002D00120E86170BD0020E8612869B0FA0C
:1007E00080F0C0F11F000E4E00EB800456F824008C
:1007F00028B940F6F6220BA111A0FFF7B3FE06EBD5
:10080000840041684968416000F10802914201D1C9
:10081000496841604068C068286070BD00000020E1
:10082000400000202E2E5C2E2E5C467265655254D0
:100830004F535C7372635C7461736B732E6300005F
:100840004572726F723A25732C25640D0A00000000
:100850007008000800000020400000008405000827
:10086000B008000840000020E806000094050008D9
:100870000000000000000000000000000000000078
:100880000000000000000000000000000000000068
:100890000000000000000000000000000000000058
:1008A0000000000000000000000000000000000048
:040000050800018965
:00000001FF
