:020000040800F2
:1000000000040020A1010008330300087702000863
:1000100031030008E9010008710400080000000035
:100020000000000000000000000000005503000870
:10003000EB0100080000000035030008110400086F
:10004000BB010008BB010008BB010008BB010008A0
:10005000BB010008BB010008BB010008BB01000890
:10006000BB010008BB010008BB010008BB01000880
:10007000BB010008BB010008BB010008BB01000870
:10008000BB010008BB010008BB010008BB01000860
:10009000BB010008BB010008BB010008BB01000850
:1000A000BB010008BB010008BB010008BB01000840
:1000B000BB010008BB010008BB010008BB01000830
:1000C000BB010008BB010008BB010008BB01000820
:1000D000BB010008BB010008BB010008BB01000810
:1000E000BB010008BB010008BB010008BB01000800
:1000F000BB010008BB010008BB010008BB010008F0
:10010000BB010008BB010008BB010008BB010008DF
:10011000BB010008BB010008BB010008BB010008CF
:10012000BB010008BB010008BB010008BB010008BF
:10013000BB010008BB010008BB010008BB010008AF
:10014000BB010008BB010008BB010008BB0100089F
:10015000BB010008BB010008BB010008BB0100088F
:10016000BB010008BB010008BB010008BB0100087F
:10017000BB010008BB010008BB010008BB0100086F
:10018000BB010008BB010008DFF810D000F01AF82E
:100190000048004791040008AFF3008000040020ED
:1001A0000648804706480047FEE7FEE7FEE7FEE711
:1001B000FEE7FEE7FEE7FEE7FEE7FEE715040008C0
:1001C00089010008064C074D06E0E06840F0010395
:1001D00094E8070098471034AC42F6D3FFF7D8FFF5
:1001E000D8040008E8040008FEE770472DE9F04154
:1001F000002201274FF0030C07FA02F50B682B4091
:10020000AB422CD1066853000CFA03F4A6430660F7
:100210000E79D0F800809E4046EA080606600E7906
:10022000012E01D0022E12D18668A64386604E7937
:10023000D0F808809E4046EA080686604668AE43CD
:10024000466045688E799640B6B235434560C568CC
:10025000A543C560CC799C40C3681C43C460521C54
:10026000102AC9D3BDE8F0810246002012690A4273
:1002700000D001207047FEE71CB50121052000F0E9
:100280005BF80120009000208DF804008DF8070035
:1002900069460548FFF7AAFF4FF4005000906946F1
:1002A0000248FFF7A3FF1CBD000002400008024007
:1002B00070B504460D4629462046FFF7D5FF0128B4
:1002C00001D0002070BD29462046FFF7CDFF012850
:1002D000F9D0012070BD00002DE9FC410121202052
:1002E00000F02AF84024009401208DF80400002139
:1002F0008DF806108DF807008DF805100B4F694634
:100300003846FFF773FF8026009669463846FFF7A8
:100310006DFFA500009569463846FFF767FF034863
:100320001830048006800580BDE8FC81001402407E
:10033000FEE7704770470000054A002903D01168A6
:1003400001431160704711688143116070470000DC
:1003500030380240704700000CB500220192009234
:100360002749086840F4803008604FF4A0430868CB
:1003700000F4003000900198401C0190009810B9E2
:1003800001989842F3D10868800302D501200090BB
:1003900000E000920098012831D1194840300268ED
:1003A00042F0805202601748026842F44042026004
:1003B0001348083002680260026842F4004202609A
:1003C000026842F4A0520260021F0F4B13600A68D9
:1003D00042F080720A600A689201FCD50B4A40F232
:1003E00005711160016821F003010160016841F0AD
:1003F000020101600168C1F381010229FAD10CBD3B
:10040000003802400070004019544007003C024090
:100410007047000010B51248016841F47001016096
:100420001048016841F0010101600E4A00210832C4
:10043000116002680C4B1A400260031D0B4A1A60DF
:10044000026822F48022026006480C300160FFF747
:1004500083FF03494FF000608039086010BD000041
:1004600088ED00E000380240FFFFF6FE1030002467
:10047000FEE702E008C8121F08C1002AFAD170473F
:100480007047002001E001C1121F002AFBD1704714
:10049000FFF722FFFFF7F0FE0C4D0D4F0D4C4FF410
:1004A000005601212846FFF703FF012803D12068E9
:1004B00080F04000206031463846FFF7F9FE012801
:1004C000EFD1206880F080002060EAE70000024061
:1004D0000008024014140240E80400080000002054
:0804E000000400008204000882
:040000050800018965
:00000001FF
